{
  "contractName": "MintContract",
  "abi": [
    {
      "inputs": [],
      "stateMutability": "nonpayable",
      "type": "constructor"
    },
    {
      "anonymous": false,
      "inputs": [
        {
          "indexed": true,
          "internalType": "address",
          "name": "owner",
          "type": "address"
        },
        {
          "indexed": true,
          "internalType": "address",
          "name": "approved",
          "type": "address"
        },
        {
          "indexed": true,
          "internalType": "uint256",
          "name": "tokenId",
          "type": "uint256"
        }
      ],
      "name": "Approval",
      "type": "event"
    },
    {
      "anonymous": false,
      "inputs": [
        {
          "indexed": true,
          "internalType": "address",
          "name": "owner",
          "type": "address"
        },
        {
          "indexed": true,
          "internalType": "address",
          "name": "operator",
          "type": "address"
        },
        {
          "indexed": false,
          "internalType": "bool",
          "name": "approved",
          "type": "bool"
        }
      ],
      "name": "ApprovalForAll",
      "type": "event"
    },
    {
      "anonymous": false,
      "inputs": [
        {
          "indexed": true,
          "internalType": "address",
          "name": "previousOwner",
          "type": "address"
        },
        {
          "indexed": true,
          "internalType": "address",
          "name": "newOwner",
          "type": "address"
        }
      ],
      "name": "OwnershipTransferred",
      "type": "event"
    },
    {
      "anonymous": false,
      "inputs": [
        {
          "indexed": true,
          "internalType": "address",
          "name": "from",
          "type": "address"
        },
        {
          "indexed": true,
          "internalType": "address",
          "name": "to",
          "type": "address"
        },
        {
          "indexed": true,
          "internalType": "uint256",
          "name": "tokenId",
          "type": "uint256"
        }
      ],
      "name": "Transfer",
      "type": "event"
    },
    {
      "inputs": [
        {
          "internalType": "address",
          "name": "to",
          "type": "address"
        },
        {
          "internalType": "uint256",
          "name": "tokenId",
          "type": "uint256"
        }
      ],
      "name": "approve",
      "outputs": [],
      "stateMutability": "nonpayable",
      "type": "function"
    },
    {
      "inputs": [
        {
          "internalType": "address",
          "name": "owner",
          "type": "address"
        }
      ],
      "name": "balanceOf",
      "outputs": [
        {
          "internalType": "uint256",
          "name": "",
          "type": "uint256"
        }
      ],
      "stateMutability": "view",
      "type": "function"
    },
    {
      "inputs": [
        {
          "internalType": "uint256",
          "name": "tokenId",
          "type": "uint256"
        }
      ],
      "name": "getApproved",
      "outputs": [
        {
          "internalType": "address",
          "name": "",
          "type": "address"
        }
      ],
      "stateMutability": "view",
      "type": "function"
    },
    {
      "inputs": [
        {
          "internalType": "address",
          "name": "owner",
          "type": "address"
        },
        {
          "internalType": "address",
          "name": "operator",
          "type": "address"
        }
      ],
      "name": "isApprovedForAll",
      "outputs": [
        {
          "internalType": "bool",
          "name": "",
          "type": "bool"
        }
      ],
      "stateMutability": "view",
      "type": "function"
    },
    {
      "inputs": [],
      "name": "name",
      "outputs": [
        {
          "internalType": "string",
          "name": "",
          "type": "string"
        }
      ],
      "stateMutability": "view",
      "type": "function"
    },
    {
      "inputs": [],
      "name": "owner",
      "outputs": [
        {
          "internalType": "address",
          "name": "",
          "type": "address"
        }
      ],
      "stateMutability": "view",
      "type": "function"
    },
    {
      "inputs": [
        {
          "internalType": "uint256",
          "name": "tokenId",
          "type": "uint256"
        }
      ],
      "name": "ownerOf",
      "outputs": [
        {
          "internalType": "address",
          "name": "",
          "type": "address"
        }
      ],
      "stateMutability": "view",
      "type": "function"
    },
    {
      "inputs": [],
      "name": "renounceOwnership",
      "outputs": [],
      "stateMutability": "nonpayable",
      "type": "function"
    },
    {
      "inputs": [
        {
          "internalType": "address",
          "name": "from",
          "type": "address"
        },
        {
          "internalType": "address",
          "name": "to",
          "type": "address"
        },
        {
          "internalType": "uint256",
          "name": "tokenId",
          "type": "uint256"
        }
      ],
      "name": "safeTransferFrom",
      "outputs": [],
      "stateMutability": "nonpayable",
      "type": "function"
    },
    {
      "inputs": [
        {
          "internalType": "address",
          "name": "from",
          "type": "address"
        },
        {
          "internalType": "address",
          "name": "to",
          "type": "address"
        },
        {
          "internalType": "uint256",
          "name": "tokenId",
          "type": "uint256"
        },
        {
          "internalType": "bytes",
          "name": "_data",
          "type": "bytes"
        }
      ],
      "name": "safeTransferFrom",
      "outputs": [],
      "stateMutability": "nonpayable",
      "type": "function"
    },
    {
      "inputs": [
        {
          "internalType": "address",
          "name": "operator",
          "type": "address"
        },
        {
          "internalType": "bool",
          "name": "approved",
          "type": "bool"
        }
      ],
      "name": "setApprovalForAll",
      "outputs": [],
      "stateMutability": "nonpayable",
      "type": "function"
    },
    {
      "inputs": [
        {
          "internalType": "bytes4",
          "name": "interfaceId",
          "type": "bytes4"
        }
      ],
      "name": "supportsInterface",
      "outputs": [
        {
          "internalType": "bool",
          "name": "",
          "type": "bool"
        }
      ],
      "stateMutability": "view",
      "type": "function"
    },
    {
      "inputs": [],
      "name": "symbol",
      "outputs": [
        {
          "internalType": "string",
          "name": "",
          "type": "string"
        }
      ],
      "stateMutability": "view",
      "type": "function"
    },
    {
      "inputs": [
        {
          "internalType": "uint256",
          "name": "tokenId",
          "type": "uint256"
        }
      ],
      "name": "tokenURI",
      "outputs": [
        {
          "internalType": "string",
          "name": "",
          "type": "string"
        }
      ],
      "stateMutability": "view",
      "type": "function"
    },
    {
      "inputs": [
        {
          "internalType": "address",
          "name": "from",
          "type": "address"
        },
        {
          "internalType": "address",
          "name": "to",
          "type": "address"
        },
        {
          "internalType": "uint256",
          "name": "tokenId",
          "type": "uint256"
        }
      ],
      "name": "transferFrom",
      "outputs": [],
      "stateMutability": "nonpayable",
      "type": "function"
    },
    {
      "inputs": [
        {
          "internalType": "address",
          "name": "newOwner",
          "type": "address"
        }
      ],
      "name": "transferOwnership",
      "outputs": [],
      "stateMutability": "nonpayable",
      "type": "function"
    },
    {
      "inputs": [
        {
          "internalType": "uint256",
          "name": "_count",
          "type": "uint256"
        }
      ],
      "name": "mintNFT",
      "outputs": [],
      "stateMutability": "payable",
      "type": "function"
    },
    {
      "inputs": [
        {
          "internalType": "uint256",
          "name": "_startTime",
          "type": "uint256"
        }
      ],
      "name": "setMintTime",
      "outputs": [],
      "stateMutability": "nonpayable",
      "type": "function"
    }
  ],
  "bytecode": "0x60806040526000600755613840600a553480156200001c57600080fd5b506040518060400160405280600481526020017f4845524f000000000000000000000000000000000000000000000000000000008152506040518060400160405280600381526020017f48455200000000000000000000000000000000000000000000000000000000008152508160009080519060200190620000a1929190620001b1565b508060019080519060200190620000ba929190620001b1565b505050620000dd620000d1620000e360201b60201c565b620000eb60201b60201c565b620002c6565b600033905090565b6000600660009054906101000a900473ffffffffffffffffffffffffffffffffffffffff16905081600660006101000a81548173ffffffffffffffffffffffffffffffffffffffff021916908373ffffffffffffffffffffffffffffffffffffffff1602179055508173ffffffffffffffffffffffffffffffffffffffff168173ffffffffffffffffffffffffffffffffffffffff167f8be0079c531659141344cd1fd0a4f28419497f9722a3daafe3b4186f6b6457e060405160405180910390a35050565b828054620001bf9062000261565b90600052602060002090601f016020900481019282620001e357600085556200022f565b82601f10620001fe57805160ff19168380011785556200022f565b828001600101855582156200022f579182015b828111156200022e57825182559160200191906001019062000211565b5b5090506200023e919062000242565b5090565b5b808211156200025d57600081600090555060010162000243565b5090565b600060028204905060018216806200027a57607f821691505b6020821081141562000291576200029062000297565b5b50919050565b7f4e487b7100000000000000000000000000000000000000000000000000000000600052602260045260246000fd5b612ef580620002d66000396000f3fe6080604052600436106101095760003560e01c80638da5cb5b11610095578063b88d4fde11610064578063b88d4fde1461035a578063c87b56dd14610383578063dda52d53146103c0578063e985e9c5146103e9578063f2fde38b1461042657610109565b80638da5cb5b146102bf57806392642744146102ea57806395d89b4114610306578063a22cb4651461033157610109565b806323b872dd116100dc57806323b872dd146101dc57806342842e0e146102055780636352211e1461022e57806370a082311461026b578063715018a6146102a857610109565b806301ffc9a71461010e57806306fdde031461014b578063081812fc14610176578063095ea7b3146101b3575b600080fd5b34801561011a57600080fd5b5061013560048036038101906101309190611f05565b61044f565b60405161014291906127a3565b60405180910390f35b34801561015757600080fd5b50610160610531565b60405161016d91906127be565b60405180910390f35b34801561018257600080fd5b5061019d60048036038101906101989190611f57565b6105c3565b6040516101aa919061273c565b60405180910390f35b3480156101bf57600080fd5b506101da60048036038101906101d59190611ec9565b610648565b005b3480156101e857600080fd5b5061020360048036038101906101fe9190611dc3565b610760565b005b34801561021157600080fd5b5061022c60048036038101906102279190611dc3565b6107c0565b005b34801561023a57600080fd5b5061025560048036038101906102509190611f57565b6107e0565b604051610262919061273c565b60405180910390f35b34801561027757600080fd5b50610292600480360381019061028d9190611d5e565b610892565b60405161029f9190612a60565b60405180910390f35b3480156102b457600080fd5b506102bd61094a565b005b3480156102cb57600080fd5b506102d46109d2565b6040516102e1919061273c565b60405180910390f35b61030460048036038101906102ff9190611f57565b6109fc565b005b34801561031257600080fd5b5061031b610c2b565b60405161032891906127be565b60405180910390f35b34801561033d57600080fd5b5061035860048036038101906103539190611e8d565b610cbd565b005b34801561036657600080fd5b50610381600480360381019061037c9190611e12565b610e3e565b005b34801561038f57600080fd5b506103aa60048036038101906103a59190611f57565b610ea0565b6040516103b791906127be565b60405180910390f35b3480156103cc57600080fd5b506103e760048036038101906103e29190611f57565b610f47565b005b3480156103f557600080fd5b50610410600480360381019061040b9190611d87565b610fcd565b60405161041d91906127a3565b60405180910390f35b34801561043257600080fd5b5061044d60048036038101906104489190611d5e565b611061565b005b60007f80ac58cd000000000000000000000000000000000000000000000000000000007bffffffffffffffffffffffffffffffffffffffffffffffffffffffff1916827bffffffffffffffffffffffffffffffffffffffffffffffffffffffff1916148061051a57507f5b5e139f000000000000000000000000000000000000000000000000000000007bffffffffffffffffffffffffffffffffffffffffffffffffffffffff1916827bffffffffffffffffffffffffffffffffffffffffffffffffffffffff1916145b8061052a575061052982611159565b5b9050919050565b60606000805461054090612cea565b80601f016020809104026020016040519081016040528092919081815260200182805461056c90612cea565b80156105b95780601f1061058e576101008083540402835291602001916105b9565b820191906000526020600020905b81548152906001019060200180831161059c57829003601f168201915b5050505050905090565b60006105ce826111c3565b61060d576040517f08c379a000000000000000000000000000000000000000000000000000000000815260040161060490612980565b60405180910390fd5b6004600083815260200190815260200160002060009054906101000a900473ffffffffffffffffffffffffffffffffffffffff169050919050565b6000610653826107e0565b90508073ffffffffffffffffffffffffffffffffffffffff168373ffffffffffffffffffffffffffffffffffffffff1614156106c4576040517f08c379a00000000000000000000000000000000000000000000000000000000081526004016106bb90612a00565b60405180910390fd5b8073ffffffffffffffffffffffffffffffffffffffff166106e361122f565b73ffffffffffffffffffffffffffffffffffffffff16148061071257506107118161070c61122f565b610fcd565b5b610751576040517f08c379a0000000000000000000000000000000000000000000000000000000008152600401610748906128e0565b60405180910390fd5b61075b8383611237565b505050565b61077161076b61122f565b826112f0565b6107b0576040517f08c379a00000000000000000000000000000000000000000000000000000000081526004016107a790612a20565b60405180910390fd5b6107bb8383836113ce565b505050565b6107db83838360405180602001604052806000815250610e3e565b505050565b6000806002600084815260200190815260200160002060009054906101000a900473ffffffffffffffffffffffffffffffffffffffff169050600073ffffffffffffffffffffffffffffffffffffffff168173ffffffffffffffffffffffffffffffffffffffff161415610889576040517f08c379a000000000000000000000000000000000000000000000000000000000815260040161088090612940565b60405180910390fd5b80915050919050565b60008073ffffffffffffffffffffffffffffffffffffffff168273ffffffffffffffffffffffffffffffffffffffff161415610903576040517f08c379a00000000000000000000000000000000000000000000000000000000081526004016108fa90612920565b60405180910390fd5b600360008373ffffffffffffffffffffffffffffffffffffffff1673ffffffffffffffffffffffffffffffffffffffff168152602001908152602001600020549050919050565b61095261122f565b73ffffffffffffffffffffffffffffffffffffffff166109706109d2565b73ffffffffffffffffffffffffffffffffffffffff16146109c6576040517f08c379a00000000000000000000000000000000000000000000000000000000081526004016109bd906129a0565b60405180910390fd5b6109d0600061162a565b565b6000600660009054906101000a900473ffffffffffffffffffffffffffffffffffffffff16905090565b6009544210158015610a1d5750600a54600954610a199190612b1f565b4211155b610a5c576040517f08c379a0000000000000000000000000000000000000000000000000000000008152600401610a5390612a40565b60405180910390fd5b611b3981600754610a6d9190612b1f565b1115610aae576040517f08c379a0000000000000000000000000000000000000000000000000000000008152600401610aa590612900565b60405180910390fd5b8066f5232269808000610ac19190612ba6565b3414610b02576040517f08c379a0000000000000000000000000000000000000000000000000000000008152600401610af9906128c0565b60405180910390fd5b600681600860003373ffffffffffffffffffffffffffffffffffffffff1673ffffffffffffffffffffffffffffffffffffffff16815260200190815260200160002054610b4f9190612b1f565b1115610b90576040517f08c379a0000000000000000000000000000000000000000000000000000000008152600401610b87906127e0565b60405180910390fd5b60005b81811015610c2757610ba7336007546116f0565b60076000815480929190610bba90612d1c565b9190505550600860003373ffffffffffffffffffffffffffffffffffffffff1673ffffffffffffffffffffffffffffffffffffffff1681526020019081526020016000206000815480929190610c0f90612d1c565b91905055508080610c1f90612d1c565b915050610b93565b5050565b606060018054610c3a90612cea565b80601f0160208091040260200160405190810160405280929190818152602001828054610c6690612cea565b8015610cb35780601f10610c8857610100808354040283529160200191610cb3565b820191906000526020600020905b815481529060010190602001808311610c9657829003601f168201915b5050505050905090565b610cc561122f565b73ffffffffffffffffffffffffffffffffffffffff168273ffffffffffffffffffffffffffffffffffffffff161415610d33576040517f08c379a0000000000000000000000000000000000000000000000000000000008152600401610d2a90612880565b60405180910390fd5b8060056000610d4061122f565b73ffffffffffffffffffffffffffffffffffffffff1673ffffffffffffffffffffffffffffffffffffffff16815260200190815260200160002060008473ffffffffffffffffffffffffffffffffffffffff1673ffffffffffffffffffffffffffffffffffffffff16815260200190815260200160002060006101000a81548160ff0219169083151502179055508173ffffffffffffffffffffffffffffffffffffffff16610ded61122f565b73ffffffffffffffffffffffffffffffffffffffff167f17307eab39ab6107e8899845ad3d59bd9653f200f220920489ca2b5937696c3183604051610e3291906127a3565b60405180910390a35050565b610e4f610e4961122f565b836112f0565b610e8e576040517f08c379a0000000000000000000000000000000000000000000000000000000008152600401610e8590612a20565b60405180910390fd5b610e9a848484846118be565b50505050565b6060610eab826111c3565b610eea576040517f08c379a0000000000000000000000000000000000000000000000000000000008152600401610ee1906129e0565b60405180910390fd5b6000610ef461191a565b90506000815111610f145760405180602001604052806000815250610f3f565b80610f1e84611931565b604051602001610f2f929190612718565b6040516020818303038152906040525b915050919050565b610f4f61122f565b73ffffffffffffffffffffffffffffffffffffffff16610f6d6109d2565b73ffffffffffffffffffffffffffffffffffffffff1614610fc3576040517f08c379a0000000000000000000000000000000000000000000000000000000008152600401610fba906129a0565b60405180910390fd5b8060098190555050565b6000600560008473ffffffffffffffffffffffffffffffffffffffff1673ffffffffffffffffffffffffffffffffffffffff16815260200190815260200160002060008373ffffffffffffffffffffffffffffffffffffffff1673ffffffffffffffffffffffffffffffffffffffff16815260200190815260200160002060009054906101000a900460ff16905092915050565b61106961122f565b73ffffffffffffffffffffffffffffffffffffffff166110876109d2565b73ffffffffffffffffffffffffffffffffffffffff16146110dd576040517f08c379a00000000000000000000000000000000000000000000000000000000081526004016110d4906129a0565b60405180910390fd5b600073ffffffffffffffffffffffffffffffffffffffff168173ffffffffffffffffffffffffffffffffffffffff16141561114d576040517f08c379a000000000000000000000000000000000000000000000000000000000815260040161114490612820565b60405180910390fd5b6111568161162a565b50565b60007f01ffc9a7000000000000000000000000000000000000000000000000000000007bffffffffffffffffffffffffffffffffffffffffffffffffffffffff1916827bffffffffffffffffffffffffffffffffffffffffffffffffffffffff1916149050919050565b60008073ffffffffffffffffffffffffffffffffffffffff166002600084815260200190815260200160002060009054906101000a900473ffffffffffffffffffffffffffffffffffffffff1673ffffffffffffffffffffffffffffffffffffffff1614159050919050565b600033905090565b816004600083815260200190815260200160002060006101000a81548173ffffffffffffffffffffffffffffffffffffffff021916908373ffffffffffffffffffffffffffffffffffffffff160217905550808273ffffffffffffffffffffffffffffffffffffffff166112aa836107e0565b73ffffffffffffffffffffffffffffffffffffffff167f8c5be1e5ebec7d5bd14f71427d1e84f3dd0314c0f7b2291e5b200ac8c7c3b92560405160405180910390a45050565b60006112fb826111c3565b61133a576040517f08c379a0000000000000000000000000000000000000000000000000000000008152600401611331906128a0565b60405180910390fd5b6000611345836107e0565b90508073ffffffffffffffffffffffffffffffffffffffff168473ffffffffffffffffffffffffffffffffffffffff1614806113b457508373ffffffffffffffffffffffffffffffffffffffff1661139c846105c3565b73ffffffffffffffffffffffffffffffffffffffff16145b806113c557506113c48185610fcd565b5b91505092915050565b8273ffffffffffffffffffffffffffffffffffffffff166113ee826107e0565b73ffffffffffffffffffffffffffffffffffffffff1614611444576040517f08c379a000000000000000000000000000000000000000000000000000000000815260040161143b906129c0565b60405180910390fd5b600073ffffffffffffffffffffffffffffffffffffffff168273ffffffffffffffffffffffffffffffffffffffff1614156114b4576040517f08c379a00000000000000000000000000000000000000000000000000000000081526004016114ab90612860565b60405180910390fd5b6114bf838383611ade565b6114ca600082611237565b6001600360008573ffffffffffffffffffffffffffffffffffffffff1673ffffffffffffffffffffffffffffffffffffffff168152602001908152602001600020600082825461151a9190612c00565b925050819055506001600360008473ffffffffffffffffffffffffffffffffffffffff1673ffffffffffffffffffffffffffffffffffffffff16815260200190815260200160002060008282546115719190612b1f565b92505081905550816002600083815260200190815260200160002060006101000a81548173ffffffffffffffffffffffffffffffffffffffff021916908373ffffffffffffffffffffffffffffffffffffffff160217905550808273ffffffffffffffffffffffffffffffffffffffff168473ffffffffffffffffffffffffffffffffffffffff167fddf252ad1be2c89b69c2b068fc378daa952ba7f163c4a11628f55a4df523b3ef60405160405180910390a4505050565b6000600660009054906101000a900473ffffffffffffffffffffffffffffffffffffffff16905081600660006101000a81548173ffffffffffffffffffffffffffffffffffffffff021916908373ffffffffffffffffffffffffffffffffffffffff1602179055508173ffffffffffffffffffffffffffffffffffffffff168173ffffffffffffffffffffffffffffffffffffffff167f8be0079c531659141344cd1fd0a4f28419497f9722a3daafe3b4186f6b6457e060405160405180910390a35050565b600073ffffffffffffffffffffffffffffffffffffffff168273ffffffffffffffffffffffffffffffffffffffff161415611760576040517f08c379a000000000000000000000000000000000000000000000000000000000815260040161175790612960565b60405180910390fd5b611769816111c3565b156117a9576040517f08c379a00000000000000000000000000000000000000000000000000000000081526004016117a090612840565b60405180910390fd5b6117b560008383611ade565b6001600360008473ffffffffffffffffffffffffffffffffffffffff1673ffffffffffffffffffffffffffffffffffffffff16815260200190815260200160002060008282546118059190612b1f565b92505081905550816002600083815260200190815260200160002060006101000a81548173ffffffffffffffffffffffffffffffffffffffff021916908373ffffffffffffffffffffffffffffffffffffffff160217905550808273ffffffffffffffffffffffffffffffffffffffff16600073ffffffffffffffffffffffffffffffffffffffff167fddf252ad1be2c89b69c2b068fc378daa952ba7f163c4a11628f55a4df523b3ef60405160405180910390a45050565b6118c98484846113ce565b6118d584848484611ae3565b611914576040517f08c379a000000000000000000000000000000000000000000000000000000000815260040161190b90612800565b60405180910390fd5b50505050565b606060405180602001604052806000815250905090565b60606000821415611979576040518060400160405280600181526020017f30000000000000000000000000000000000000000000000000000000000000008152509050611ad9565b600082905060005b600082146119ab57808061199490612d1c565b915050600a826119a49190612b75565b9150611981565b60008167ffffffffffffffff8111156119ed577f4e487b7100000000000000000000000000000000000000000000000000000000600052604160045260246000fd5b6040519080825280601f01601f191660200182016040528015611a1f5781602001600182028036833780820191505090505b5090505b60008514611ad257600182611a389190612c00565b9150600a85611a479190612d65565b6030611a539190612b1f565b60f81b818381518110611a8f577f4e487b7100000000000000000000000000000000000000000000000000000000600052603260045260246000fd5b60200101907effffffffffffffffffffffffffffffffffffffffffffffffffffffffffffff1916908160001a905350600a85611acb9190612b75565b9450611a23565b8093505050505b919050565b505050565b6000611b048473ffffffffffffffffffffffffffffffffffffffff16611c7a565b15611c6d578373ffffffffffffffffffffffffffffffffffffffff1663150b7a02611b2d61122f565b8786866040518563ffffffff1660e01b8152600401611b4f9493929190612757565b602060405180830381600087803b158015611b6957600080fd5b505af1925050508015611b9a57506040513d601f19601f82011682018060405250810190611b979190611f2e565b60015b611c1d573d8060008114611bca576040519150601f19603f3d011682016040523d82523d6000602084013e611bcf565b606091505b50600081511415611c15576040517f08c379a0000000000000000000000000000000000000000000000000000000008152600401611c0c90612800565b60405180910390fd5b805181602001fd5b63150b7a0260e01b7bffffffffffffffffffffffffffffffffffffffffffffffffffffffff1916817bffffffffffffffffffffffffffffffffffffffffffffffffffffffff191614915050611c72565b600190505b949350505050565b600080823b905060008111915050919050565b6000611ca0611c9b84612aac565b612a7b565b905082815260208101848484011115611cb857600080fd5b611cc3848285612ca8565b509392505050565b600081359050611cda81612e63565b92915050565b600081359050611cef81612e7a565b92915050565b600081359050611d0481612e91565b92915050565b600081519050611d1981612e91565b92915050565b600082601f830112611d3057600080fd5b8135611d40848260208601611c8d565b91505092915050565b600081359050611d5881612ea8565b92915050565b600060208284031215611d7057600080fd5b6000611d7e84828501611ccb565b91505092915050565b60008060408385031215611d9a57600080fd5b6000611da885828601611ccb565b9250506020611db985828601611ccb565b9150509250929050565b600080600060608486031215611dd857600080fd5b6000611de686828701611ccb565b9350506020611df786828701611ccb565b9250506040611e0886828701611d49565b9150509250925092565b60008060008060808587031215611e2857600080fd5b6000611e3687828801611ccb565b9450506020611e4787828801611ccb565b9350506040611e5887828801611d49565b925050606085013567ffffffffffffffff811115611e7557600080fd5b611e8187828801611d1f565b91505092959194509250565b60008060408385031215611ea057600080fd5b6000611eae85828601611ccb565b9250506020611ebf85828601611ce0565b9150509250929050565b60008060408385031215611edc57600080fd5b6000611eea85828601611ccb565b9250506020611efb85828601611d49565b9150509250929050565b600060208284031215611f1757600080fd5b6000611f2584828501611cf5565b91505092915050565b600060208284031215611f4057600080fd5b6000611f4e84828501611d0a565b91505092915050565b600060208284031215611f6957600080fd5b6000611f7784828501611d49565b91505092915050565b611f8981612c34565b82525050565b611f9881612c46565b82525050565b6000611fa982612adc565b611fb38185612af2565b9350611fc3818560208601612cb7565b611fcc81612e52565b840191505092915050565b6000611fe282612ae7565b611fec8185612b03565b9350611ffc818560208601612cb7565b61200581612e52565b840191505092915050565b600061201b82612ae7565b6120258185612b14565b9350612035818560208601612cb7565b80840191505092915050565b600061204e600b83612b03565b91507f4d617869756d20697320360000000000000000000000000000000000000000006000830152602082019050919050565b600061208e603283612b03565b91507f4552433732313a207472616e7366657220746f206e6f6e20455243373231526560008301527f63656976657220696d706c656d656e74657200000000000000000000000000006020830152604082019050919050565b60006120f4602683612b03565b91507f4f776e61626c653a206e6577206f776e657220697320746865207a65726f206160008301527f64647265737300000000000000000000000000000000000000000000000000006020830152604082019050919050565b600061215a601c83612b03565b91507f4552433732313a20746f6b656e20616c7265616479206d696e746564000000006000830152602082019050919050565b600061219a602483612b03565b91507f4552433732313a207472616e7366657220746f20746865207a65726f2061646460008301527f72657373000000000000000000000000000000000000000000000000000000006020830152604082019050919050565b6000612200601983612b03565b91507f4552433732313a20617070726f766520746f2063616c6c6572000000000000006000830152602082019050919050565b6000612240602c83612b03565b91507f4552433732313a206f70657261746f7220717565727920666f72206e6f6e657860008301527f697374656e7420746f6b656e00000000000000000000000000000000000000006020830152604082019050919050565b60006122a6601183612b03565b91507f4e6f74206d617463682062616c616e63650000000000000000000000000000006000830152602082019050919050565b60006122e6603883612b03565b91507f4552433732313a20617070726f76652063616c6c6572206973206e6f74206f7760008301527f6e6572206e6f7220617070726f76656420666f7220616c6c00000000000000006020830152604082019050919050565b600061234c601283612b03565b91507f43616e2774206d696e7420616e796d6f726500000000000000000000000000006000830152602082019050919050565b600061238c602a83612b03565b91507f4552433732313a2062616c616e636520717565727920666f7220746865207a6560008301527f726f2061646472657373000000000000000000000000000000000000000000006020830152604082019050919050565b60006123f2602983612b03565b91507f4552433732313a206f776e657220717565727920666f72206e6f6e657869737460008301527f656e7420746f6b656e00000000000000000000000000000000000000000000006020830152604082019050919050565b6000612458602083612b03565b91507f4552433732313a206d696e7420746f20746865207a65726f20616464726573736000830152602082019050919050565b6000612498602c83612b03565b91507f4552433732313a20617070726f76656420717565727920666f72206e6f6e657860008301527f697374656e7420746f6b656e00000000000000000000000000000000000000006020830152604082019050919050565b60006124fe602083612b03565b91507f4f776e61626c653a2063616c6c6572206973206e6f7420746865206f776e65726000830152602082019050919050565b600061253e602983612b03565b91507f4552433732313a207472616e73666572206f6620746f6b656e2074686174206960008301527f73206e6f74206f776e00000000000000000000000000000000000000000000006020830152604082019050919050565b60006125a4602f83612b03565b91507f4552433732314d657461646174613a2055524920717565727920666f72206e6f60008301527f6e6578697374656e7420746f6b656e00000000000000000000000000000000006020830152604082019050919050565b600061260a602183612b03565b91507f4552433732313a20617070726f76616c20746f2063757272656e74206f776e6560008301527f72000000000000000000000000000000000000000000000000000000000000006020830152604082019050919050565b6000612670603183612b03565b91507f4552433732313a207472616e736665722063616c6c6572206973206e6f74206f60008301527f776e6572206e6f7220617070726f7665640000000000000000000000000000006020830152604082019050919050565b60006126d6601283612b03565b91507f49742773206e6f74206d696e742074696d6500000000000000000000000000006000830152602082019050919050565b61271281612c9e565b82525050565b60006127248285612010565b91506127308284612010565b91508190509392505050565b60006020820190506127516000830184611f80565b92915050565b600060808201905061276c6000830187611f80565b6127796020830186611f80565b6127866040830185612709565b81810360608301526127988184611f9e565b905095945050505050565b60006020820190506127b86000830184611f8f565b92915050565b600060208201905081810360008301526127d88184611fd7565b905092915050565b600060208201905081810360008301526127f981612041565b9050919050565b6000602082019050818103600083015261281981612081565b9050919050565b60006020820190508181036000830152612839816120e7565b9050919050565b600060208201905081810360008301526128598161214d565b9050919050565b600060208201905081810360008301526128798161218d565b9050919050565b60006020820190508181036000830152612899816121f3565b9050919050565b600060208201905081810360008301526128b981612233565b9050919050565b600060208201905081810360008301526128d981612299565b9050919050565b600060208201905081810360008301526128f9816122d9565b9050919050565b600060208201905081810360008301526129198161233f565b9050919050565b600060208201905081810360008301526129398161237f565b9050919050565b60006020820190508181036000830152612959816123e5565b9050919050565b600060208201905081810360008301526129798161244b565b9050919050565b600060208201905081810360008301526129998161248b565b9050919050565b600060208201905081810360008301526129b9816124f1565b9050919050565b600060208201905081810360008301526129d981612531565b9050919050565b600060208201905081810360008301526129f981612597565b9050919050565b60006020820190508181036000830152612a19816125fd565b9050919050565b60006020820190508181036000830152612a3981612663565b9050919050565b60006020820190508181036000830152612a59816126c9565b9050919050565b6000602082019050612a756000830184612709565b92915050565b6000604051905081810181811067ffffffffffffffff82111715612aa257612aa1612e23565b5b8060405250919050565b600067ffffffffffffffff821115612ac757612ac6612e23565b5b601f19601f8301169050602081019050919050565b600081519050919050565b600081519050919050565b600082825260208201905092915050565b600082825260208201905092915050565b600081905092915050565b6000612b2a82612c9e565b9150612b3583612c9e565b9250827fffffffffffffffffffffffffffffffffffffffffffffffffffffffffffffffff03821115612b6a57612b69612d96565b5b828201905092915050565b6000612b8082612c9e565b9150612b8b83612c9e565b925082612b9b57612b9a612dc5565b5b828204905092915050565b6000612bb182612c9e565b9150612bbc83612c9e565b9250817fffffffffffffffffffffffffffffffffffffffffffffffffffffffffffffffff0483118215151615612bf557612bf4612d96565b5b828202905092915050565b6000612c0b82612c9e565b9150612c1683612c9e565b925082821015612c2957612c28612d96565b5b828203905092915050565b6000612c3f82612c7e565b9050919050565b60008115159050919050565b60007fffffffff0000000000000000000000000000000000000000000000000000000082169050919050565b600073ffffffffffffffffffffffffffffffffffffffff82169050919050565b6000819050919050565b82818337600083830152505050565b60005b83811015612cd5578082015181840152602081019050612cba565b83811115612ce4576000848401525b50505050565b60006002820490506001821680612d0257607f821691505b60208210811415612d1657612d15612df4565b5b50919050565b6000612d2782612c9e565b91507fffffffffffffffffffffffffffffffffffffffffffffffffffffffffffffffff821415612d5a57612d59612d96565b5b600182019050919050565b6000612d7082612c9e565b9150612d7b83612c9e565b925082612d8b57612d8a612dc5565b5b828206905092915050565b7f4e487b7100000000000000000000000000000000000000000000000000000000600052601160045260246000fd5b7f4e487b7100000000000000000000000000000000000000000000000000000000600052601260045260246000fd5b7f4e487b7100000000000000000000000000000000000000000000000000000000600052602260045260246000fd5b7f4e487b7100000000000000000000000000000000000000000000000000000000600052604160045260246000fd5b6000601f19601f8301169050919050565b612e6c81612c34565b8114612e7757600080fd5b50565b612e8381612c46565b8114612e8e57600080fd5b50565b612e9a81612c52565b8114612ea557600080fd5b50565b612eb181612c9e565b8114612ebc57600080fd5b5056fea264697066735822122081147c2f931ef61d906b9d089334cfefb88f9a8abf0832c0914fb730f67d5a4464736f6c63430008000033",
  "immutableReferences": {},
  "source": "// SPDX-License-Identifier: MIT\r\npragma solidity >=0.4.22 <0.9.0;\r\n\r\nimport \"@openzeppelin/contracts/token/ERC721/ERC721.sol\";\r\nimport \"@openzeppelin/contracts/access/Ownable.sol\";\r\n\r\n/**\r\n * @title Mint NFT Contract\r\n */\r\n\r\ncontract MintContract is ERC721, Ownable {\r\n    uint256 total_supply = 0;\r\n    mapping (address => uint) ownwallet;\r\n    uint256 startTime;\r\n    uint256 duration = 4 hours;\r\n constructor() ERC721(\"HERO\", \"HER\") {}\r\n    modifier duringMintTime() {\r\n        require( block.timestamp >= startTime && block.timestamp <= startTime + duration,\"It's not mint time\");\r\n        _;\r\n    }\r\n\r\n    function mintNFT (uint _count) external payable duringMintTime{\r\n        require(total_supply + _count <= 6969, \"Can't mint anymore\");\r\n        require(msg.value == .069 ether * _count,\"Not match balance\");\r\n        require(ownwallet[msg.sender] + _count <= 6,\"Maxium is 6\");\r\n\r\n        for( uint i = 0; i < _count; i++ ) {\r\n            _mint(msg.sender, total_supply);\r\n            total_supply++;\r\n            ownwallet[msg.sender]++;\r\n        }\r\n    }\r\n\r\n    function setMintTime( uint256 _startTime ) external onlyOwner {\r\n        startTime = _startTime;\r\n    }\r\n}",
  "sourcePath": "F:\\blockchain\\Adrian_CTO\\hero\\blockchain\\contracts\\Mint.sol",
  "compiler": {
    "name": "solc",
    "version": "0.8.0+commit.c7dfd78e.Emscripten.clang"
  },
  "schemaVersion": "3.4.3",
  "updatedAt": "2021-11-29T15:39:31.140Z",
  "devdoc": {
    "kind": "dev",
    "methods": {
      "approve(address,uint256)": {
        "details": "See {IERC721-approve}."
      },
      "balanceOf(address)": {
        "details": "See {IERC721-balanceOf}."
      },
      "getApproved(uint256)": {
        "details": "See {IERC721-getApproved}."
      },
      "isApprovedForAll(address,address)": {
        "details": "See {IERC721-isApprovedForAll}."
      },
      "name()": {
        "details": "See {IERC721Metadata-name}."
      },
      "owner()": {
        "details": "Returns the address of the current owner."
      },
      "ownerOf(uint256)": {
        "details": "See {IERC721-ownerOf}."
      },
      "renounceOwnership()": {
        "details": "Leaves the contract without owner. It will not be possible to call `onlyOwner` functions anymore. Can only be called by the current owner. NOTE: Renouncing ownership will leave the contract without an owner, thereby removing any functionality that is only available to the owner."
      },
      "safeTransferFrom(address,address,uint256)": {
        "details": "See {IERC721-safeTransferFrom}."
      },
      "safeTransferFrom(address,address,uint256,bytes)": {
        "details": "See {IERC721-safeTransferFrom}."
      },
      "setApprovalForAll(address,bool)": {
        "details": "See {IERC721-setApprovalForAll}."
      },
      "supportsInterface(bytes4)": {
        "details": "See {IERC165-supportsInterface}."
      },
      "symbol()": {
        "details": "See {IERC721Metadata-symbol}."
      },
      "tokenURI(uint256)": {
        "details": "See {IERC721Metadata-tokenURI}."
      },
      "transferFrom(address,address,uint256)": {
        "details": "See {IERC721-transferFrom}."
      },
      "transferOwnership(address)": {
        "details": "Transfers ownership of the contract to a new account (`newOwner`). Can only be called by the current owner."
      }
    },
    "title": "Mint NFT Contract",
    "version": 1
  },
  "userdoc": {
    "kind": "user",
    "methods": {},
    "version": 1
  }
}